:2010000000020020951300009B1300009D1300009F1300009F1300009F1300000000000092
:201020000000000000000000000000009F1300009F130000000000009F1300009F130000E8
:201040009F1300009F1300009F1300009F1300009F1300009F1300009F1300009F13000000
:201060009F1300009F1300009F1300009F1300009F1300009F1300009F1300009F130000E0
:201080009F1300009F1300009F1300009F1300009F1300009F1300009F1300009F130000C0
:2010A0009F1300009F1300009F1300009F1300009F1300009F1300009F1300009F130000A0
:2010C0009F1300009F1300009F1300009F1300009F1300009F1300009F1300009F13000080
:2010E0009F13000000000000000000009F1300009F1300009F1300009F1300009F130000C4
:201100009F1300009F1300009F1300009F13000000000000000000009F1300009F130000A3
:201120009F1300009F1300009F1300009F1300009F1300009F1300009F1300009F1300001F
:20114000000000000000000000000000000000009F1300009F1300009F1300009F130000C7
:2011600000000000000000000000000000000000000000000000000000000000000000006F
:2011800000000000000000000000000000000000000000000000000000000000000000004F
:2011A000000000000000000000000000000000009F1300009F1300009F1300009F13000067
:2011C0009F1300009F1300009F1300009F1300009F1300009F1300009F1300009F1300007F
:2011E0009F1300009F1300009F13000000000000000000009F1300009F1300009F130000C3
:201200009F1300009F13000000000000000000009F1300009F1300009F1300009F130000A2
:201220009F1300009F1300009F1300009F1300009F1300009F1300009F1300009F1300001E
:201240009F1300009F1300009F1300009F1300009F1300009F1300009F1300009F130000FE
:201260009F1300009F1300009F1300002D49086820F00E0008602C4908686FF30F1008601E
:201280002A49086840F00E0008602949086820F00E0008602749086840F00E000860264968
:2012A000086820F00E00086070472449086820F001000860234822490860234900200860F9
:2012C0001E49086840F00500086070471B480068400CFBD3704708B51C49086840F0200065
:2012E00008601A4800680090FFF7C0FFFFF7DDFF1749FF200860174900200860FFF7E6FFFB
:201300001549FF200860154900200860FFF7DEFF1349FF200860134900200860FFF7D6FF9D
:20132000E6E7C046285502402C55024000540240205402401C550240FC53024010E000E0F8
:2013400014E000E0FF23F40018E000E008E10F4008500240305002401050024028500240DB
:201360002050024018500240084880F308880849086840F47000086000BF00BF00F010F87B
:201380000020FFF7A8FF012000F00CF80002002088ED00E0FFF7E8BF7047FEE7FEE7FEE701
:0813A0000120704700BFFEE7C9
:00000001FF
